:100000000C945D000C9485000C9485000C94850084
:100010000C9485000C9485000C9485000C9485004C
:100020000C9485000C9485000C9485000C9485003C
:100030000C9485000C9485000C9485000C9485002C
:100040000C940E060C9485000C947E060C945806B5
:100050000C9485000C9485000C9485000C9485000C
:100060000C94B0060C9485000000000024002700CA
:100070002A0000000000250028002B0004040404CE
:100080000404040402020202020203030303030342
:10009000010204081020408001020408102001021F
:1000A00004081020000000080002010000030407FB
:1000B0000000000000000000CF0711241FBECFEF9A
:1000C000D8E0DEBFCDBF11E0A0E0B1E0E8EDFAE19D
:1000D00002C005900D92A03CB107D9F724E0A0EC36
:1000E000B1E001C01D92A03DB207E1F710E0CDE5FF
:1000F000D0E004C02197FE010E94640DCC35D107E9
:10010000C9F70E9417080C946A0D0C94000090E047
:10011000FC01EC55FF4F2491FC01E057FF4F349157
:10012000FC01E458FF4FE491EE23C9F0222339F09B
:10013000233001F1A8F4213019F1223029F1F0E047
:10014000EE0FFF1FEE58FF4FA591B4918FB7F894B3
:10015000EC91611126C030953E233C938FBF0895EA
:100160002730A9F02830C9F0243049F78091800069
:100170008F7D03C0809180008F7780938000DFCFD8
:1001800084B58F7784BDDBCF84B58F7DFBCF809125
:10019000B0008F778093B000D2CF8091B0008F7D78
:1001A000F9CF3E2BDACF3FB7F894809117049091A6
:1001B0001804A0911904B0911A0426B5A89B05C093
:1001C0002F3F19F00196A11DB11D3FBFBA2FA92FD6
:1001D000982F8827BC01CD01620F711D811D911DD3
:1001E00042E0660F771F881F991F4A95D1F708953F
:1001F0008F929F92AF92BF92CF92DF92EF92FF9237
:100200004B015C010E94D3006B017C010E94D30072
:100210006C197D098E099F09683E7340810591051F
:10022000A8F321E0821A9108A108B10888EEC80E4F
:1002300083E0D81EE11CF11C81149104A104B104D7
:1002400029F7FF90EF90DF90CF90BF90AF909F90F5
:100250008F90089508950895AF92BF92CF92DF9244
:10026000EF92FF920F931F93CF93DF936C017B016B
:100270008B01040F151FEB015E01AE18BF08C017FC
:10028000D10759F06991D601ED91FC910190F0816F
:10029000E02DC6010995892B79F7C501DF91CF9132
:1002A0001F910F91FF90EF90DF90CF90BF90AF9094
:1002B0000895FC01538D448D252F30E0842F90E06C
:1002C000821B930B541710F0CF9608950197089551
:1002D000FC01918D828D981761F0A28DAE0FBF2F1A
:1002E000B11D5D968C91928D9F5F9F73928F90E070
:1002F00008958FEF9FEF0895FC01918D828D9817DF
:1003000031F0828DE80FF11D858D90E008958FEF1B
:100310009FEF0895FC01918D228D892F90E0805CE4
:100320009F4F821B91098F73992708958BE194E069
:100330000E948A0121E0892B09F420E0822F089590
:1003400080E090E0892B29F00E94960181110C94A5
:1003500000000895FC01A48DA80FB92FB11DA35A68
:10036000BF4F2C91848D90E001968F739927848FD5
:10037000A689B7892C93A089B1898C9183708064F8
:100380008C93938D848D981306C00288F389E02D99
:1003900080818F7D80830895EF92FF920F931F934A
:1003A000CF93DF93EC0181E0888F9B8D8C8D981328
:1003B0001AC0E889F989808185FF15C09FB7F89434
:1003C000EE89FF896083E889F98980818370806480
:1003D00080839FBF81E090E0DF91CF911F910F91CB
:1003E000FF90EF900895F62E0B8D10E00F5F1F4FDA
:1003F0000F731127E02E8C8D8E110CC00FB607FCE9
:10040000FACFE889F989808185FFF5CFCE010E9476
:10041000AA01F1CFEB8DEC0FFD2FF11DE35AFF4F39
:10042000F0829FB7F8940B8FEA89FB898081806204
:10043000CFCFCF93DF93EC01888D8823B9F0AA89C1
:10044000BB89E889F9898C9185FD03C0808186FD8F
:100450000DC00FB607FCF7CF8C9185FFF2CF8081DE
:1004600085FFEDCFCE010E94AA01E9CFDF91CF91A8
:100470000895089520910102260F3327331F21325A
:100480003105ECF420914A02FC0190E080E0243038
:1004900069F082E00895A09101022191AC014F51D1
:1004A0005E4FA40FB52FB11D2C930196861798F3BC
:1004B00080910102680F6093010280E0089581E05D
:1004C000089510924A0281E080934902109224021A
:1004D00061E082E10E94870061E083E10E94870081
:1004E000E9EBF0E080818E7F808380818D7F808347
:1004F00088E48093B80085E48093BC000895CF938E
:10050000DF9391E09093E0018823B9F0C091B800A7
:10051000D091BA008091BC008A7B8093BC0060E0DF
:1005200082E10E94870060E083E10E9487000E94D0
:100530006102D093BA00C093B800DF91CF910895C3
:100540000895E091790280917802E81730F4F0E0A4
:10055000E054FE4F808190E008958FEF9FEF089563
:1005600090917902809178022FEF3FEF981748F42D
:10057000E92FF0E0E054FE4F208130E09F5F909340
:100580007902C90108958091780290917902891BBE
:10059000990B0895CF92DF92EF92FF920F931F93E2
:1005A000CF93DF937C01CB018A012091500222235B
:1005B00089F0EB016B01C40ED51ECC15DD0569F089
:1005C0006991D701ED91FC910190F081E02DC70177
:1005D0000995F3CF642F0E943A02C801DF91CF91B1
:1005E0001F910F91FF90EF90DF90CF900895CF93E0
:1005F000DF931F92CDB7DEB769832091500222238B
:10060000F9F020917602203258F021E030E0FC0130
:100610003383228390E080E00F90DF91CF910895A3
:1006200080917702E82FF0E0EF5AFD4F9981908397
:100630008F5F809377028093760281E090E0ECCF29
:1006400061E0CE0101960E943A02F7CFCF92DF928D
:10065000EF92FF920F931F93CF93DF93FC01C4811E
:1006600021E020935002C093710210927702109201
:1006700076028385682B88EB94E00E94F702D09184
:100680007602D13208F092C00E94D3006B017C0147
:1006900080914A02811165C082E080934A0281E024
:1006A000809349028FEF8093480210924702D093C3
:1006B0004602A1E5B2E0E6E2F2E080E0D81385C0B0
:1006C0001092250280912502CC0FC82BC0932502E1
:1006D00080912402813009F07CC0109224020E9493
:1006E000D3006B017C01809125028093BB00809137
:1006F0004C0290914D02A0914E02B0914F02892B75
:100700008A2B8B2B99F00E94D30000914C02109100
:100710004D0220914E0230914F026C197D098E09D5
:100720009F090617170728073907E0F18091BC00D9
:1007300083FDD9CF85EC8093BC000E94D3006B0170
:100740007C0180914A02823009F445C080914802C0
:100750008F3F61F180914802803241F180914802DF
:1007600025C080914C0290914D02A0914E02B09113
:100770004F02892B8A2B8B2B09F48ACF0E94D3003E
:1007800000914C0210914D0220914E0230914F0287
:100790006C197D098E099F09061717072807390765
:1007A00008F076CF80914B020E947F021092770270
:1007B0001092760210925002DF91CF911F910F910B
:1007C000FF90EF90DF90CF9008959D9191938F5F70
:1007D00075CF85EEB0CF80914C0290914D02A091E3
:1007E0004E02B0914F02892B8A2B8B2B09F4A9CF93
:1007F0000E94D30000914C0210914D0220914E02B4
:1008000030914F026C197D098E099F090617170751
:100810002807390708F095CFC5CF90E080E008950C
:10082000FB0101900020E9F73197AF01461B570B00
:10083000DC01ED91FC910280F381E02D09948F920F
:100840009F92AF92BF92EF92FF920F931F93CF931D
:10085000DF93CDB7DEB7A1970FB6F894DEBF0FBE1A
:10086000CDBF7C01FA01CB0119A2223008F42AE0A5
:100870008E010F5D1F4F822E912CB12CA12CBF0138
:10088000A50194010E942E0DF901CA016A300CF5F0
:10089000605DD8016E938D01232B242B252B79F7D6
:1008A00090E080E0109721F0BD01C7010E94100484
:1008B000A1960FB6F894DEBF0FBECDBFDF91CF91EA
:1008C0001F910F91FF90EF90BF90AF909F908F90EE
:1008D0000895695CDECF0F931F93CF93DF93EC01F4
:1008E0000E9410048C0160E471E0CE010E941004AB
:1008F000800F911FDF91CF911F910F9108950C945C
:1009000010042F923F924F925F926F927F928F923C
:100910009F92AF92BF92CF92DF92EF92FF921F937E
:10092000CF93DF93EC016A017B01722EAB0196013C
:10093000CB01B6010E94150D63E471E0811126C060
:1009400046015701E894B7F82FEF3FEF4FE75FE715
:10095000C501B4010E94150D81110CC02FEF3FEFAE
:100960004FE75FE7C501B4010E944B0B67E471E0FC
:10097000181664F02FEF3FEF4FE75FE4C701B601B1
:100980000E94A30C1816B4F46BE471E0CE01DF9161
:10099000CF911F91FF90EF90DF90CF90BF90AF90DD
:1009A0009F908F907F906F905F904F903F902F908F
:1009B0000C9410042FEF3FEF4FE75FECC701B60137
:1009C0000E944B0B87FDE0CF20E030E0A901C7017A
:1009D000B6010E944B0B312C212C87FF0DC0E88102
:1009E000F9810190F081E02D6DE2CE0109951C01A5
:1009F000F7FAF094F7F8F09410E060E070E080E02F
:100A00009FE3711641F020E030E040E251E40E94A3
:100A1000500B1F5FF6CFA70196010E94DF0A2B0142
:100A20003C010E94C20B4B015C012AE0BC01A40105
:100A3000CE010E941F047C01E20CF31C1123E1F1A2
:100A4000C501B4010E94F10B9B01AC01C301B201CD
:100A50000E94DE0A4B015C01E881F9810190F0817E
:100A6000E02D6EE2CE010995E80EF91E115020F13D
:100A700020E030E040E251E4C501B4010E94A80C3E
:100A80002B013C010E94C20B4B01B12CA12C2AE08E
:100A9000B501A401CE010E941F04E80EF91EC50194
:100AA000B4010E94F10B9B01AC01C301B2010E9491
:100AB000DE0A4B015C01DACFC701DF91CF911F91B4
:100AC000FF90EF90DF90CF90BF90AF909F908F906E
:100AD0007F906F905F904F903F902F9008950F936D
:100AE0001F93CF938C01C62F0E9426036C2F646046
:100AF000C8010E9426036C2F6B7FC8010E94260349
:100B000083EC90E00197F1F7CF911F910F91089539
:100B10000F931F93CF93DF938C01D62FC42F607F49
:100B2000642B0E946F0580E1D89FB00111246C2BCB
:100B3000C801DF91CF911F910F910C946F05CF9356
:100B4000DF93CDB7DEB728970FB6F894DEBF0FBEA0
:100B5000CDBF98E0E8E0F1E0DE01119601900D9242
:100B60009A95E1F79091CC04981708F48FEF90E0F4
:100B7000880F991F21E030E02C0F3D1F820F931F3B
:100B8000FC016081606840E084EC94E028960FB638
:100B9000F894DEBF0FBECDBFDF91CF910C948805D6
:100BA00041E00E94880581E090E0089585ED809302
:100BB000BC0080914C0290914D02A0914E02B091E8
:100BC0004F020796A11DB11D23E0B695A7959795F5
:100BD00087952A95D1F72091BC0024FD03C010927F
:100BE0004A02089540914C0250914D0260914E028C
:100BF00070914F02452B462B472B69F30097A105B7
:100C0000B10541F02AE22A95F1F700C00197A10948
:100C1000B109E1CF80914B020C947F021F920F9299
:100C20000FB60F9211242F933F938F939F93AF93FF
:100C3000BF938091130490911404A0911504B09176
:100C400016043091120423E0230F2D3758F5019636
:100C5000A11DB11D209312048093130490931404DA
:100C6000A0931504B0931604809117049091180472
:100C7000A0911904B0911A040196A11DB11D809391
:100C8000170490931804A0931904B0931A04BF9109
:100C9000AF919F918F913F912F910F900FBE0F9029
:100CA0001F90189526E8230F0296A11DB11DD2CFE3
:100CB0001F920F920FB60F9211242F933F934F93D1
:100CC0005F936F937F938F939F93AF93BF93EF93B4
:100CD000FF938BE194E00E94AA01FF91EF91BF91F5
:100CE000AF919F918F917F916F915F914F913F91C4
:100CF0002F910F900FBE0F901F9018951F920F927B
:100D00000FB60F9211242F938F939F93EF93FF931E
:100D1000E0912B04F0912C048081E0913104F0915A
:100D2000320482FD1BC09081809134048F5F8F73E9
:100D300020913504821741F0E0913404F0E0E55E43
:100D4000FB4F958F80933404FF91EF919F918F918A
:100D50002F910F900FBE0F901F9018958081F4CFA8
:100D60001F920F920FB60F9211242F933F934F9320
:100D70005F936F937F938F939F93AF93BF93EF9303
:100D8000FF938091B900887F803609F44AC0F0F55E
:100D9000883209F4A7C018F5803109F49BC0B8F473
:100DA000882309F4F9C0883009F494C0FF91EF91C9
:100DB000BF91AF919F918F917F916F915F914F9173
:100DC0003F912F910F900FBE0F901F901895883173
:100DD00009F488C0803251F78093480214C08034EF
:100DE00009F49DC040F48033B9F38833F9F6809359
:100DF000480285ECB0C0803509F485C0883509F417
:100E000096C0883499F60E94D605D0CF883909F467
:100E10008CC038F5883729F050F4883611F08037C7
:100E200029F683E080934A021092230257C0883843
:100E300009F47BC0803919F0803809F0B7CF809170
:100E40002302803208F071C0E091230281E08E0F0E
:100E5000809323028091BB00F0E0ED5FFD4F808323
:100E60003DC0803B39F0E0F4803A09F479C0883A1B
:100E700009F09CCF84E080934A0210920202109203
:100E80000102E0917402F0917502099580910102CE
:100E900081110FC081E0809301021092E10109C02D
:100EA000803C09F4A6CF883C09F4A3CF883B09F025
:100EB0007DCFE091020281E08E0F80930202F0E08C
:100EC000EF51FE4F80818093BB0090910202809190
:100ED000010229C0809125028093BB0085EC80939C
:100EE000BC0064CF9091470280914602981758F554
:100EF000E091470281E08E0F80934702F0E0EA5DC7
:100F0000FD4F8081E9CFE091470281E08E0F809311
:100F100047028091BB00F0E0EA5DFD4F8083909135
:100F20004702809146029817C8F285E8D8CFE09131
:100F3000470281E08E0F809347028091BB00F0E072
:100F4000EA5DFD4F80838091490281115CCF81E091
:100F50008093240284EA8093BC0010924A0226CF38
:100F600085EC8093BC0010924A028091230280326B
:100F700030F4E0912302F0E0ED5FFD4F10826091CC
:100F8000230270E0E0917202F091730283E092E03C
:100F90000995109223020ACF1092480234CFEBE158
:100FA000F4E01382128288EE93E0A0E0B0E0848344
:100FB0009583A683B78324E131E03183208325EC38
:100FC00030E03587248724EC30E03787268720EC13
:100FD00030E0318B208B21EC30E0338B228B22EC04
:100FE00030E0358B248B26EC30E0378B268B118E4E
:100FF000128E138E148EE8EBF4E013821282848337
:101000009583A683B78386E291E091838083E4ECA5
:10101000F4E01382128288E391E09183808380E27E
:10102000848380E1818782E08287138608957894A3
:1010300084B5826084BD84B5816084BD85B58260DD
:1010400085BD85B5816085BD80916E00816080938E
:101050006E001092810080918100826080938100F7
:101060008091810081608093810080918000816007
:10107000809380008091B10084608093B100809162
:10108000B00081608093B00080917A00846080938A
:101090007A0080917A00826080937A0080917A0051
:1010A000816080937A0080917A00806880937A00D2
:1010B0001092C10010927A0283E480937C0084E84D
:1010C00080937A00E1EAF0E02491EDE8F0E0849189
:1010D0008823C1F090E0880F991FFC01E859FF4F69
:1010E000C591D491FC01EE58FF4FA591B4919FB7E3
:1010F000F8948881E22FE0958E2388838C91E823F1
:10110000EC939FBF109279021092780210927702AE
:10111000109276020E9461028AE291E09093750239
:10112000809374028BE291E0909373028093720239
:101130001092C9048091CE04823018F098E0909308
:10114000C9048093CC0462E370E080E090E00E94E8
:10115000F8006091CF0484EC94E00E94260368EECE
:1011600073E080E090E00E94F80060E384EC94E09B
:101170000E946F05CBE4D6E4CE010197F1F760E35E
:1011800084EC94E00E946F052197F1F760E384EC12
:1011900094E00E946F0583E592E00197F1F760E229
:1011A00084EC94E00E946F056091C904606240E0A5
:1011B00084EC94E00E94880584E08093CA0440E0B7
:1011C0006CE084EC94E00E94880540E061E084ECEF
:1011D00094E00E948805CBE3DFE1CE010197F1F7AF
:1011E00012E01093CB0440E066E084EC94E00E94AF
:1011F000880540E062E084EC94E00E948805219735
:10120000F1F788E08093CF0460E084EC94E00E94E2
:10121000260380E00E949F056FE471E084EC94E077
:101220000E947F0481E00E949F0560E671E084ECEB
:1012300094E00E947F04E0912B04F0912C04108331
:10124000E0912704F09128041082E0912904F091A4
:101250002A048FEC808310923304E0912F04F091E4
:10126000300486E08083E0912D04F0912E0480818B
:1012700080618083E0912D04F0912E04808188604C
:101280008083E0912D04F0912E048081806880831A
:10129000E0912D04F0912E0480818F7D808368EB96
:1012A0007BE080E090E00E94F80023E4D22ECBE0C7
:1012B000D4E002E310E030E0E32E30E0F32E6AE009
:1012C00070E080E090E00E94F8008091100490911E
:1012D000110401969093110480931004D0927C0025
:1012E00080917A00806480937A0080917A0086FDF4
:1012F000FCCF609178007091790077FF02C06F5F3A
:101300007F4F75956795072E000C880B990B0E94EF
:10131000F30BE0910B0421E02E0F20930B0434E03B
:10132000E302F0011124E558FD4F6083718382834D
:101330009383243611F410920B048BE7A82E82E0DD
:10134000B82E60E070E0CB01F5012191319141911F
:1013500051915F010E94DF0ACA15DB05A9F720E061
:1013600030E048EC52E40E94500B20E030E040EEC8
:1013700050E40E94A80C20E030E049E353E40E94CE
:10138000DF0A20E030E040E751E40E94500B609318
:101390000C0470930D0480930E0490930F048091BD
:1013A000100490911104B8010E941A0D892B09F0C4
:1013B00057C08BE194E00E948A01892B31F08BE1C8
:1013C00094E00E94680180937A0261E771E08BE10A
:1013D00094E00E947F0440910C0450910D046091B0
:1013E0000E0470910F0422E08BE194E00E948104CE
:1013F0006CE971E08BE194E00E947F046AE771E0A0
:101400008BE194E00E947F0440910401509105011A
:10141000609106017091070122E08BE194E00E9447
:1014200081046CE971E08BE194E00E947F0460E844
:1014300071E08BE194E00E947F04409100015091A3
:101440000101609102017091030122E08BE194E0BF
:101450000E9481046CE971E08BE194E00E946B04CE
:1014600080911004909111048436910509F07FC099
:1014700080900C0490900D04A0900E04B0900F0486
:10148000209104013091050140910601509107011E
:10149000C501B4010E94A30C181644F48092040103
:1014A00090920501A0920601B092070120910001DF
:1014B000309101014091020150910301C501B40135
:1014C0000E944B0B87FF08C080920001909201019F
:1014D000A0920201B092030180917A028133F1F06F
:1014E000823309F450C080E00E949F056FEA71E0EA
:1014F00084EC94E00E947F0481E00E949F0568E9EB
:1015000071E084EC94E00E947F0440910C045091BF
:101510000D0460910E0470910F041AC080E00E94C7
:101520009F0566E871E084EC94E00E947F0481E00E
:101530000E949F0568E971E084EC94E00E947F04BA
:1015400040910401509105016091060170910701DD
:1015500022E084EC94E00E94810466E971E084EC6E
:1015600094E00E946B041092110410921004E11494
:10157000F10409F4A4CE0E949601882309F49FCEB9
:101580000E9400009CCE80E00E949F056EE971E001
:1015900084EC94E00E947F0481E00E949F0568E94A
:1015A00071E084EC94E00E947F044091000150912E
:1015B00001016091020170910301CACF5058BB270D
:1015C000AA270E94F60A0C94690C0E945B0C38F062
:1015D0000E94620C20F039F49F3F19F426F40C9419
:1015E000580C0EF4E095E7FB0C94520CE92F0E9486
:1015F0007A0C58F3BA17620773078407950720F02F
:1016000079F4A6F50C949C0C0EF4E0950B2EBA2FF1
:10161000A02D0B01B90190010C01CA01A0011124F8
:10162000FF27591B99F0593F50F4503E68F11A16A4
:10163000F040A22F232F342F4427585FF3CF469535
:1016400037952795A795F0405395C9F77EF41F1657
:10165000BA0B620B730B840BBAF09150A1F0FF0F21
:10166000BB1F661F771F881FC2F70EC0BA0F621F0D
:10167000731F841F48F4879577956795B795F795FD
:101680009E3F08F0B0CF9395880F08F09927EE0F92
:101690009795879508950E942E0C08F481E008958F
:1016A0000E94640B0C94690C0E94620C58F00E941A
:1016B0005B0C40F029F45F3F29F00C94520C51115F
:1016C0000C949D0C0C94580C0E947A0C68F399238E
:1016D000B1F3552391F3951B550BBB27AA2762172E
:1016E0007307840738F09F5F5F4F220F331F441F3B
:1016F000AA1FA9F335D00E2E3AF0E0E832D091506F
:101700005040E695001CCAF72BD0FE2F29D0660F5B
:10171000771F881FBB1F261737074807AB07B0E89E
:1017200009F0BB0B802DBF01FF2793585F4F3AF0A4
:101730009E3F510578F00C94520C0C949D0C5F3F29
:10174000E4F3983ED4F3869577956795B795F7952A
:101750009F5FC9F7880F911D9695879597F9089512
:10176000E1E0660F771F881FBB1F621773078407AE
:10177000BA0720F0621B730B840BBA0BEE1F88F7BD
:10178000E09508950E94820C88F09F5798F0B92F39
:101790009927B751B0F0E1F0660F771F881F991FA6
:1017A0001AF0BA95C9F714C0B13091F00E949C0CA0
:1017B000B1E008950C949C0C672F782F8827B85FB0
:1017C00039F0B93FCCF3869577956795B395D9F7FE
:1017D0003EF490958095709561957F4F8F4F9F4F08
:1017E0000895E89409C097FB3EF490958095709514
:1017F00061957F4F8F4F9F4F9923A9F0F92F96E95D
:10180000BB279395F695879577956795B795F111D1
:10181000F8CFFAF4BB0F11F460FF1BC06F5F7F4F6E
:101820008F4F9F4F16C0882311F096E911C0772380
:1018300021F09EE8872F762F05C0662371F096E889
:10184000862F70E060E02AF09A95660F771F881F58
:10185000DAF7880F9695879597F90895990F0008FC
:10186000550FAA0BE0E8FEEF16161706E807F90772
:10187000C0F012161306E407F50798F0621B730B0D
:10188000840B950B39F40A2661F0232B242B252B8E
:1018900021F408950A2609F4A140A6958FEF811D31
:1018A000811D089597F99F6780E870E060E00895D2
:1018B0009FEF80EC089500240A9416161706180668
:1018C0000906089500240A94121613061406050644
:1018D0000895092E0394000C11F4882352F0BB0FD5
:1018E00040F4BF2B11F460FF04C06F5F7F4F8F4F38
:1018F0009F4F089557FD9058440F551F59F05F3F73
:1019000071F04795880F97FB991F61F09F3F79F021
:1019100087950895121613061406551FF2CF4695A3
:10192000F1DF08C0161617061806991FF1CF869525
:101930007105610508940895E894BB276627772709
:10194000CB0197F908950E942E0C08F48FEF0895AB
:101950000E94BB0C0C94690C0E945B0C38F00E9436
:10196000620C20F0952311F00C94520C0C94580C3E
:1019700011240C949D0C0E947A0C70F3959FC1F376
:10198000950F50E0551F629FF001729FBB27F00D2D
:10199000B11D639FAA27F00DB11DAA1F649F662782
:1019A000B00DA11D661F829F2227B00DA11D621FD1
:1019B000739FB00DA11D621F839FA00D611D221F8B
:1019C000749F3327A00D611D231F849F600D211D6F
:1019D000822F762F6A2F11249F5750409AF0F1F0F2
:1019E00088234AF0EE0FFF1FBB1F661F771F881F5B
:1019F00091505040A9F79E3F510580F00C94520C35
:101A00000C949D0C5F3FE4F3983ED4F38695779554
:101A10006795B795F795E7959F5FC1F7FE2B880F00
:101A2000911D9695879597F908950E942E0C880B25
:101A3000990B089597FB072E16F4009407D077FDB5
:101A400009D00E94500D07FC05D03EF49095819579
:101A50009F4F0895709561957F4F0895A1E21A2ECA
:101A6000AA1BBB1BFD010DC0AA1FBB1FEE1FFF1F42
:101A7000A217B307E407F50720F0A21BB30BE40B92
:101A8000F50B661F771F881F991F1A9469F76095D9
:101A90007095809590959B01AC01BD01CF01089593
:101AA000AA1BBB1B51E107C0AA1FBB1FA617B70784
:101AB00010F0A61BB70B881F991F5A95A9F78095A0
:101AC0009095BC01CD010895EE0FFF1F0590F49194
:081AD000E02D0994F894FFCF0A
:101AD80000001B4300005CC20000400014005400DA
:101AE80000000000CC012C01590119028A0168018B
:101AF8007C0100000000F702CA020D04A002C30224
:101B0800B002A10200000000D0052C010D0439022A
:101B18000D0A006E616E00696E66006F76660020C1
:101B280020202041524455494E4F2020202020009B
:101B380054454D50524554555245204D45544552F3
:101B480000437272656E743A20004D61783A200045
:101B58004D696E3A2000202020204D617820546580
:101B68006D703A20200020432020202020002020D3
:101B780020204D696E2054656D703A202020002089
:101B88002043757272656E742054656D703A20003A
:00000001FF
